{
  "transactions": [
    {
      "hash": "0x27a6c035ff5d81a63fc17bcadfead87a717feb2f9c8cda5cd797b16227547b8a",
      "transactionType": "CALL",
      "contractName": null,
      "contractAddress": "0x13deef906fb0312359edbf5b86eb3d4eddaf24c9",
      "function": "grantRole(bytes32,address)",
      "arguments": [
        "0x65d7a28e3265b37a6474929f336521b332c1681b933f6cb9f3376673440d862a",
        "0x32b8CFbc9e062a2c38b6CD601E98458D5044AC88"
      ],
      "transaction": {
        "from": "0x52efe70d789d2c2356db3c5a8b10c2fbbb8d9dd2",
        "to": "0x13deef906fb0312359edbf5b86eb3d4eddaf24c9",
        "gas": "0x499bfe80",
        "value": "0x0",
        "input": "0x2f2ff15d65d7a28e3265b37a6474929f336521b332c1681b933f6cb9f3376673440d862a00000000000000000000000032b8cfbc9e062a2c38b6cd601e98458d5044ac88",
        "nonce": "0xd2",
        "chainId": "0x138b"
      },
      "additionalContracts": [],
      "isFixedGasLimit": false
    },
    {
      "hash": "0x4fb9779b779ff04354c9b3b04705332243717f777e7a99b019db12520f14f548",
      "transactionType": "CALL",
      "contractName": null,
      "contractAddress": "0x13deef906fb0312359edbf5b86eb3d4eddaf24c9",
      "function": "grantRole(bytes32,address)",
      "arguments": [
        "0x65d7a28e3265b37a6474929f336521b332c1681b933f6cb9f3376673440d862a",
        "0x4473b5407Fa81d1603DEb915B1603539CFE4EC51"
      ],
      "transaction": {
        "from": "0x52efe70d789d2c2356db3c5a8b10c2fbbb8d9dd2",
        "to": "0x13deef906fb0312359edbf5b86eb3d4eddaf24c9",
        "gas": "0x499bfe80",
        "value": "0x0",
        "input": "0x2f2ff15d65d7a28e3265b37a6474929f336521b332c1681b933f6cb9f3376673440d862a0000000000000000000000004473b5407fa81d1603deb915b1603539cfe4ec51",
        "nonce": "0xd3",
        "chainId": "0x138b"
      },
      "additionalContracts": [],
      "isFixedGasLimit": false
    }
  ],
  "receipts": [
    {
      "status": "0x1",
      "cumulativeGasUsed": "0x146e6e7c",
      "logs": [
        {
          "address": "0x13deef906fb0312359edbf5b86eb3d4eddaf24c9",
          "topics": [
            "0x2f8788117e7eff1d82e926ec794901d17c78024a50270940304540a733656f0d",
            "0x65d7a28e3265b37a6474929f336521b332c1681b933f6cb9f3376673440d862a",
            "0x00000000000000000000000032b8cfbc9e062a2c38b6cd601e98458d5044ac88",
            "0x00000000000000000000000052efe70d789d2c2356db3c5a8b10c2fbbb8d9dd2"
          ],
          "data": "0x",
          "blockHash": "0xe0f0bd76e8d0ef7a6ce25f65b80c13e17c2a161df537fa1fbb58f9dc7880235a",
          "blockNumber": "0xa4810c",
          "transactionHash": "0x27a6c035ff5d81a63fc17bcadfead87a717feb2f9c8cda5cd797b16227547b8a",
          "transactionIndex": "0x1",
          "logIndex": "0x0",
          "removed": false
        }
      ],
      "logsBloom": "0x00000004000000000000000000000000000000000000000000000000000000000000000000000000000000000000000000000000000000000000000000000000000000000000000000000000000000000000000000000000000000800000000000000000000000000000000000000000000000000000000000000000000000000000000004000000000000000000008000080000000000000000000010000000000010000000000000100000000000000000000000000000001000000000000000000000000000000000000000000000000000000000000100002800000000000000010000000000000000000000000000000500000000000000000000000000",
      "type": "0x2",
      "transactionHash": "0x27a6c035ff5d81a63fc17bcadfead87a717feb2f9c8cda5cd797b16227547b8a",
      "transactionIndex": "0x1",
      "blockHash": "0xe0f0bd76e8d0ef7a6ce25f65b80c13e17c2a161df537fa1fbb58f9dc7880235a",
      "blockNumber": "0xa4810c",
      "gasUsed": "0x146db753",
      "effectiveGasPrice": "0x1312d00",
      "from": "0x52efe70d789d2c2356db3c5a8b10c2fbbb8d9dd2",
      "to": "0x13deef906fb0312359edbf5b86eb3d4eddaf24c9",
      "contractAddress": null,
      "l1Fee": "0x7867fc4419d92",
      "l1FeeScalar": "0.01",
      "l1GasPrice": "0x4324cfc66",
      "l1GasUsed": "0xb44",
      "tokenRatio": "0xfeb"
    },
    {
      "status": "0x1",
      "cumulativeGasUsed": "0x1411fb97",
      "logs": [
        {
          "address": "0x13deef906fb0312359edbf5b86eb3d4eddaf24c9",
          "topics": [
            "0x2f8788117e7eff1d82e926ec794901d17c78024a50270940304540a733656f0d",
            "0x65d7a28e3265b37a6474929f336521b332c1681b933f6cb9f3376673440d862a",
            "0x0000000000000000000000004473b5407fa81d1603deb915b1603539cfe4ec51",
            "0x00000000000000000000000052efe70d789d2c2356db3c5a8b10c2fbbb8d9dd2"
          ],
          "data": "0x",
          "blockHash": "0xd6d077294c38c19641a86c9f164dff49705057ae03ef1313fbd6e9f07cead6fe",
          "blockNumber": "0xa48110",
          "transactionHash": "0x4fb9779b779ff04354c9b3b04705332243717f777e7a99b019db12520f14f548",
          "transactionIndex": "0x1",
          "logIndex": "0x0",
          "removed": false
        }
      ],
      "logsBloom": "0x00000004000000000000000000000000000000000000000000000000000000000000000000000000000000000000000000000000000000000000000000000000000000000000000000008000000000000000000000000000000000000000000000000080000000000000000000000000000000000000000000000000000000000000000004000000000000000000008000000000000000000000000010000000000010000000000000000000000000000000000000000000001000000000000000000000000000000000000000000000000002000000000100002800000000000000010000000000000000000000000000000500000000000000000000000000",
      "type": "0x2",
      "transactionHash": "0x4fb9779b779ff04354c9b3b04705332243717f777e7a99b019db12520f14f548",
      "transactionIndex": "0x1",
      "blockHash": "0xd6d077294c38c19641a86c9f164dff49705057ae03ef1313fbd6e9f07cead6fe",
      "blockNumber": "0xa48110",
      "gasUsed": "0x141101a2",
      "effectiveGasPrice": "0x1312d00",
      "from": "0x52efe70d789d2c2356db3c5a8b10c2fbbb8d9dd2",
      "to": "0x13deef906fb0312359edbf5b86eb3d4eddaf24c9",
      "contractAddress": null,
      "l1Fee": "0x717f3f75b7328",
      "l1FeeScalar": "0.01",
      "l1GasPrice": "0x3f07592b6",
      "l1GasUsed": "0xb50",
      "tokenRatio": "0xfeb"
    }
  ],
  "libraries": [],
  "pending": [],
  "returns": {},
  "timestamp": 1723106565,
  "chain": 5003,
  "commit": "bca5610"
}