{
  "transactions": [
    {
      "hash": "0x077af4219af392ea1270f6b733e99334dfd1cb6b9d6e1a44abb47393cd139aa9",
      "transactionType": "CALL",
      "contractName": null,
      "contractAddress": "0xfb9b2d2336cce3e035da68dcf4ba2b3cca78545d",
      "function": "grantRole(bytes32,address)",
      "arguments": [
        "0x65d7a28e3265b37a6474929f336521b332c1681b933f6cb9f3376673440d862a",
        "0x52efE70d789d2c2356db3c5a8B10C2Fbbb8D9dd2"
      ],
      "transaction": {
        "from": "0x52efe70d789d2c2356db3c5a8b10c2fbbb8d9dd2",
        "to": "0xfb9b2d2336cce3e035da68dcf4ba2b3cca78545d",
        "gas": "0x2d910a00",
        "value": "0x0",
        "input": "0x2f2ff15d65d7a28e3265b37a6474929f336521b332c1681b933f6cb9f3376673440d862a00000000000000000000000052efe70d789d2c2356db3c5a8b10c2fbbb8d9dd2",
        "nonce": "0xca",
        "chainId": "0x138b"
      },
      "additionalContracts": [],
      "isFixedGasLimit": false
    },
    {
      "hash": "0xb4c10a00bbc5a9e96f49ad76eb3c383197301d90165d033a9f747f37e00a6a65",
      "transactionType": "CALL",
      "contractName": null,
      "contractAddress": "0xfb9b2d2336cce3e035da68dcf4ba2b3cca78545d",
      "function": "grantRole(bytes32,address)",
      "arguments": [
        "0x65d7a28e3265b37a6474929f336521b332c1681b933f6cb9f3376673440d862a",
        "0x52efE70d789d2c2356db3c5a8B10C2Fbbb8D9dd2"
      ],
      "transaction": {
        "from": "0x52efe70d789d2c2356db3c5a8b10c2fbbb8d9dd2",
        "to": "0xfb9b2d2336cce3e035da68dcf4ba2b3cca78545d",
        "gas": "0x2d910a00",
        "value": "0x0",
        "input": "0x2f2ff15d65d7a28e3265b37a6474929f336521b332c1681b933f6cb9f3376673440d862a00000000000000000000000052efe70d789d2c2356db3c5a8b10c2fbbb8d9dd2",
        "nonce": "0xcb",
        "chainId": "0x138b"
      },
      "additionalContracts": [],
      "isFixedGasLimit": false
    }
  ],
  "receipts": [
    {
      "status": "0x1",
      "cumulativeGasUsed": "0xbe20548",
      "logs": [],
      "logsBloom": "0x00000000000000000000000000000000000000000000000000000000000000000000000000000000000000000000000000000000000000000000000000000000000000000000000000000000000000000000000000000000000000000000000000000000000000000000000000000000000000000000000000000000000000000000000000000000000000000000000000000000000000000000000000000000000000000000000000000000000000000000000000000000000000000000000000000000000000000000000000000000000000000000000000000000000000000000000000000000000000000000000000000000000000000000000000000000",
      "type": "0x2",
      "transactionHash": "0x077af4219af392ea1270f6b733e99334dfd1cb6b9d6e1a44abb47393cd139aa9",
      "transactionIndex": "0x1",
      "blockHash": "0x737e4cb91d703c4f6245b3a7e5b3a8c760b65cde79eade360eecc23a74b6a3bb",
      "blockNumber": "0xa48026",
      "gasUsed": "0xbe10b53",
      "effectiveGasPrice": "0x1312d00",
      "from": "0x52efe70d789d2c2356db3c5a8b10c2fbbb8d9dd2",
      "to": "0xfb9b2d2336cce3e035da68dcf4ba2b3cca78545d",
      "contractAddress": null,
      "l1Fee": "0x3be7bedcbaf16",
      "l1FeeScalar": "0.01",
      "l1GasPrice": "0x2167e3152",
      "l1GasUsed": "0xb44",
      "tokenRatio": "0xfeb"
    },
    {
      "status": "0x1",
      "cumulativeGasUsed": "0xbde66ea",
      "logs": [],
      "logsBloom": "0x00000000000000000000000000000000000000000000000000000000000000000000000000000000000000000000000000000000000000000000000000000000000000000000000000000000000000000000000000000000000000000000000000000000000000000000000000000000000000000000000000000000000000000000000000000000000000000000000000000000000000000000000000000000000000000000000000000000000000000000000000000000000000000000000000000000000000000000000000000000000000000000000000000000000000000000000000000000000000000000000000000000000000000000000000000000",
      "type": "0x2",
      "transactionHash": "0xb4c10a00bbc5a9e96f49ad76eb3c383197301d90165d033a9f747f37e00a6a65",
      "transactionIndex": "0x1",
      "blockHash": "0x1ef87994ba043732d67d827578a63e9d1ef7444d92e5a8fcb303072474c684d4",
      "blockNumber": "0xa4802a",
      "gasUsed": "0xbddafc1",
      "effectiveGasPrice": "0x1312d00",
      "from": "0x52efe70d789d2c2356db3c5a8b10c2fbbb8d9dd2",
      "to": "0xfb9b2d2336cce3e035da68dcf4ba2b3cca78545d",
      "contractAddress": null,
      "l1Fee": "0x3ba7ef6bf7974",
      "l1FeeScalar": "0.01",
      "l1GasPrice": "0x2167e3152",
      "l1GasUsed": "0xb38",
      "tokenRatio": "0xfeb"
    }
  ],
  "libraries": [],
  "pending": [],
  "returns": {},
  "timestamp": 1723106105,
  "chain": 5003,
  "commit": "bca5610"
}